S00E000030325F4C43442E7372656382
S11300000C942A000C9434000C9434000C943400A6
S11300100C9434000C9434000C9434000C9434008C
S11300200C9434000C9434000C9434000C9434007C
S11300300C9434000C9434000C9434000C9434006C
S11300400C9434000C9434000C9434000C9434005C
S11300500C94340011241FBECFE5D4E0DEBFCDBF25
S11300600E94BC000C94DD000C940000DC9A84E136
S11300708A95F1F7DC9884E18A95F1F7089598B3AD
S11300809B7198BB88230CF4C79A86FDC69A85FD9C
S1130090C59A84FDC29A0E9436000895CF93C82F52
S11300A0DE980E943F008C2F8295807F0E943F0043
S11300B084E98A95F1F7CF910895CF93C82FDE9AFA
S11300C00E943F008C2F8295807F0E943F0084E92C
S11300D08A95F1F7CF91089581E00E944E008FE652
S11300E097E10197F1F700C0000008958AB3806595
S11300F08ABB87B3846E87BB8BB38F7A8BBB88B381
S11301008B7188BB8FE295E70197F1F700C000007F
S113011080E20E943F0094E99A95F1F788E20E94F8
S11301204E008CE00E944E0086E00E944E000E9429
S11301306C00089582E00E944E008FE697E10197DB
S1130140F1F700C000000895613051F028F06230EA
S113015059F0633069F0089580580E944E00089564
S113016080540E944E00089580570E944E000895C6
S113017080530E944E0008950E9476000E949A00C7
S113018084E50E945D0085E40E945D0083E50E9491
S11301905D0084E50E945D0061E083E00E94A400AC
S11301A081E30E945D0085E40E945D0083E50E9476
S11101B05D0084E50E945D00E1CFF894FFCF6E
S9030000FC
