S00E000030335F4C43442E7372656381
S11300000C942A000C943F000C943F000C943F0085
S11300100C943F000C943F000C943F000C943F0060
S11300200C943F000C943F000C943F000C943F0050
S11300300C943F000C943F000C943F000C943F0040
S11300400C943F000C943F000C943F000C943F0030
S11300500C943F0011241FBECFE5D4E0DEBFCDBF1A
S113006010E0A0E6B0E0E0E8F3E002C005900D92F5
S1130070A636B107D9F70E9455010C94BE010C9421
S11300800000DC9A84E18A95F1F7DC9884E18A9592
S1130090F1F7089598B39B7198BB88230CF4C79A21
S11300A086FDC69A85FDC59A84FDC29A0E944100C8
S11300B00895CF93C82FDE980E944A008C2F829512
S11300C0807F0E944A0084E98A95F1F7CF910895D0
S11300D0CF93C82FDE9A0E944A008C2F8295807F8E
S11300E00E944A0084E98A95F1F7CF910895CF934D
S11300F0DF93EC018881882331F021960E94680007
S113010089918111FBCFDF91CF91089581E00E9405
S113011059008FE697E10197F1F700C000000895B8
S11301208AB380658ABB87B3846E87BB8BB38F7AAF
S11301308BBB88B38B7188BB8FE295E70197F1F78E
S113014000C0000080E20E944A0094E99A95F1F709
S113015088E20E9459008CE00E94590086E00E94C7
S113016059000E948600089582E00E9459008FE69B
S113017097E10197F1F700C000000895613051F054
S113018028F0623059F0633069F0089580580E9475
S11301905900089580540E945900089580570E9480
S11301A05900089580530E9459000895CF92DF9218
S11301B0EF92FF920F931F93CF93DF93CDB7DEB7E8
S11301C0A1970FB6F894DEBF0FBECDBF423009F43D
S11301D052C04A3019F0403109F058C03FEF320F95
S11301E03A3008F053C0E42FF0E0E22EF42E9F01E1
S11301F0AE014F5F5F4F0E9481018981882309F41A
S113020041C0FE01329611E08191882319F01F5FED
S11302101132D1F71E15A0F401C010E0CE2CD12C60
S1130220C11AD1081C141D048CF400E080E20E9461
S113023068000F5F802F90E08C159D05BCF306C00D
S1130240E11620F4FE01EE0DF11D11822AE0F212F6
S113025005C0CE0101960E94770018C0812F90E05E
S11302608E19910921E030E02C0F3D1F820F931F5E
S11302700E9477000BC03FEF320F3A3038F4E2E0CF
S1130280F0E0B3CFE110C9CF10E0E0CFA1960FB6F4
S1130290F894DEBF0FBECDBFDF91CF911F910F91B8
S11302A0FF90EF90DF90CF9008950E9490000E94FD
S11302B0B40080E690E00E94770024E042E06AE027
S11302C070E080E090E00E94D60061E080E00E944F
S11302D0BE0083E690E00E94770021E040E16AE0FE
S11302E070E080E090E00E94D60080E20E94680006
S11302F022E04AE06AE070E080E090E00E94D600EC
S1130300D6CF2532310520F4223010F00C948C0124
S1130310FA011082CA010895BB27FA01A62F6217B9
S1130320710581059105330B30FB66F0AA27660F32
S1130330771F881F991FAA1FA21710F0A21B63958D
S11303403850A9F7A05DAA3308F0A95DA19336F748
S1130350B111B1931082CA010C94AE01DC01FC010D
S1130360672F71917723E1F7329704C07C916D93E5
S113037070836291AE17BF07C8F30895F894FFCF56
S109038030620030780039
S9030000FC
