:100000000C942A000C943F000C943F000C943F0089
:100010000C943F000C943F000C943F000C943F0064
:100020000C943F000C943F000C943F000C943F0054
:100030000C943F000C943F000C943F000C943F0044
:100040000C943F000C943F000C943F000C943F0034
:100050000C943F0011241FBECFE5D4E0DEBFCDBF1E
:1000600010E0A0E6B0E0E8EFF1E002C005900D92EC
:10007000AE36B107D9F70E94D6000C94FA000C9462
:100080000000DC9A84E18A95F1F7DC9884E18A9596
:10009000F1F7089598B39B7198BB88230CF4C79A25
:1000A00086FDC69A85FDC59A84FDC29A0E944100CC
:1000B0000895CF93C82FDE980E944A008C2F829516
:1000C000807F0E944A0084E98A95F1F7CF910895D4
:1000D000CF93C82FDE9A0E944A008C2F8295807F92
:1000E0000E944A0084E98A95F1F7CF910895CF9351
:1000F000DF93EC018881882331F021960E9468000B
:1001000089918111FBCFDF91CF91089581E00E9409
:1001100059008FE697E10197F1F700C000000895BC
:100120008AB380658ABB87B3846E87BB8BB38F7AB3
:100130008BBB88B38B7188BB8FE295E70197F1F792
:1001400000C0000080E20E944A0094E99A95F1F70D
:1001500088E20E9459008CE00E94590086E00E94CB
:1001600059000E948600089582E00E9459008FE69F
:1001700097E10197F1F700C000000895613051F058
:1001800028F0623059F0633069F0089580580E9479
:100190005900089580540E945900089580570E9484
:1001A0005900089580530E9459000895CF93DF931A
:1001B000CDB7DEB727970FB6F894DEBF0FBECDBF21
:1001C0000E9490000E94B40080E690E00E947700B8
:1001D00061E080E00E94BE0087E0E6E6F0E0DE013C
:1001E000119601900D928A95E1F7CE0101960E9439
:0801F0007700E8CFF894FFCF7F
:0E01F80048616C6C6F0048616C6C6F320000E7
:00000001FF
