S00E000030325F4C45442E7372656380
S11300000C942A000C9434000C9434000C943400A6
S11300100C9434000C9434000C9434000C9434008C
S11300200C9434000C9434000C9434000C9434007C
S11300300C9434000C9434000C9434000C9434006C
S11300400C9434000C9434000C9434000C9434005C
S11300500C94340011241FBECFE5D4E0DEBFCDBF25
S11300600E9436000C9450000C9400008FE08BBB6F
S11300708FEF84BB1ABAC89902C0A89A01C0A89885
S1130080C99902C0A99A01C0A998CA9902C0AA9A9A
S113009001C0AA98CB9902C0AB9AEDCFAB98EBCF35
S10700A0F894FFCFFE
S9030000FC
