:100000000C942A000C9434000C9434000C943400AA
:100010000C9434000C9434000C9434000C94340090
:100020000C9434000C9434000C9434000C94340080
:100030000C9434000C9434000C9434000C94340070
:100040000C9434000C9434000C9434000C94340060
:100050000C94340011241FBECFE5D4E0DEBFCDBF29
:100060000E9436000C944C000C9400008FEF84BB6F
:1000700083E085BB2FEF8EE994E2215080409040D1
:10008000E1F700C0000095B385B3990F881F88275A
:0C009000881F892B85BBEECFF894FFCFB2
:00000001FF
