:100000000C942A000C9434000C9434000C943400AA
:100010000C9434000C9434000C9434000C94340090
:100020000C9434000C9434000C9434000C94340080
:100030000C9434000C9434000C9434000C94340070
:100040000C9434000C9434000C9434000C94340060
:100050000C94340011241FBECFE5D4E0DEBFCDBF29
:100060000E9436000C9442000C9400008FEF84BB79
:100070002FEB84ED91E0215080409040E1F700C0EB
:080080000000F6CFF894FFCF59
:00000001FF
