:100000000C942A000C9434000C9434000C943400AA
:100010000C9434000C9434000C9434000C94340090
:100020000C9434000C9434000C9434000C94340080
:100030000C9434000C9434000C9434000C94340070
:100040000C9434000C9434000C9434000C94340060
:100050000C94340011241FBECFE5D4E0DEBFCDBF29
:100060000E9436000C9478000C9400008FEF84BB43
:100070001ABA8FE08BBB85B3809585BBC8990AC03F
:100080002FE78FE492E1215080409040E1F700C0DB
:100090000000F1CFC9990AC02FEF8EE994E22150F8
:1000A00080409040E1F700C00000E5CFCA990AC047
:1000B0002FEF8DE399E4215080409040E1F700C09C
:1000C0000000D9CFCB990AC02FEF8BE792E92150DE
:1000D00080409040E1F700C00000CDCF2FEB87E2D9
:1000E00099E0215080409040E1F700C00000C3CF6C
:0400F000F894FFCFB2
:00000001FF
