:100000000C942A000C9434000C9434000C943400AA
:100010000C9434000C9434000C9434000C94340090
:100020000C9434000C9434000C9434000C94340080
:100030000C9434000C9434000C9434000C94340070
:100040000C9434000C9434000C9434000C94340060
:100050000C94340011241FBECFE5D4E0DEBFCDBF29
:100060000E9436000C945E000C9400008FEF84BB5D
:1000700091E095BB1ABA8BBB3FEF21E095B385B3F6
:10008000991F9927991F880F892B85BB4FE782EA13
:1000900099E1415080409040E1F700C0000089B3F1
:1000A000813061F735BB4FEF8EE994E241508040DB
:1000B0009040E1F700C0000025BBE0CFF894FFCFEF
:00000001FF
