:100000000C942A000C9434000C9434000C943400AA
:100010000C9434000C9434000C9434000C94340090
:100020000C9434000C9434000C9434000C94340080
:100030000C9434000C9434000C9434000C94340070
:100040000C9434000C9434000C9434000C94340060
:100050000C94340011241FBECFE5D4E0DEBFCDBF29
:100060000E944E000C945D000C94000080E487B95F
:1000700086E086B9089597B1987F8770892B87B9F4
:10008000089586B1806C86B9369B03C0000036990E
:10009000FDCF84B125B190E0922B08958FEF84BB02
:1000A0000E94360085E00E943B000E944100969528
:0E00B00087959695879585BBF8CFF894FFCF7E
:00000001FF
