:100000000C942A000C9434000C9434000C943400AA
:100010000C9434000C9434000C9434000C94340090
:100020000C9434000C9434000C9434000C94340080
:100030000C9434000C9434000C9434000C94340070
:100040000C9434000C9434000C9434000C94340060
:100050000C94340011241FBECFE5D4E0DEBFCDBF29
:100060000E9436000C944F000C9400008FEF84BB6C
:100070001ABA8FE08BBB80E0C899FECFEFE1FEE4B7
:100080003197F1F700C000008F5F85BBC89BFECFA2
:10009000EFE1FEE43197F1F700C00000EDCFF894F6
:0200A000FFCF90
:00000001FF
