S00E000030375F4C43442E737265637D
S11300000C942A000C943F000C943F000C943F0085
S11300100C943F000C943F000C943F000C943F0060
S11300200C943F000C943F000C943F000C943F0050
S11300300C943F000C943F000C943F000C943F0040
S11300400C943F000C943F000C943F000C943F0030
S11300500C943F0011241FBECFE5D4E0DEBFCDBF1A
S113006010E0A0E6B0E0E2E7F2E002C005900D92F5
S1130070A037B107D9F70E94E5000C9437010C941E
S11300800000DC9A84E18A95F1F7DC9884E18A9592
S1130090F1F7089598B39B7198BB88230CF4C79A21
S11300A086FDC69A85FDC59A84FDC29A0E944100C8
S11300B00895CF93C82FDE980E944A008C2F829512
S11300C0807F0E944A0084E98A95F1F7CF910895D0
S11300D0CF93C82FDE9A0E944A008C2F8295807F8E
S11300E00E944A0084E98A95F1F7CF91089581E04E
S11300F00E9459008FE697E10197F1F700C00000D4
S113010008958AB380658ABB87B3846E87BB8BB33B
S11301108F7A8BBB88B38B7188BB8FE295E701978D
S1130120F1F700C0000080E20E944A0094E99A9529
S1130130F1F788E20E9459008CE00E94590086E0A1
S11301400E9459000E947700089582E00E9459009D
S11301508FE697E10197F1F700C000000895613040
S113016051F028F0623059F0633069F008958058F6
S11301700E945900089580540E94590008958057A0
S11301800E945900089580530E94590008950F93C6
S11301901F93CF93DF93883098F48B01880F880FD7
S11301A0880F805C0E945900E801085F1F4F899105
S11301B00E946800C017D107D1F780E80E94590057
S11301C0DF91CF911F910F910895CF93DF93CDB716
S11301D0DEB760970FB6F894DEBF0FBECDBF0E94A6
S11301E0810088E0E0E6F0E0DE01119601900D92D6
S11301F08A95E1F788E0E8E6F0E0DE0119960190DF
S11302000D928A95E1F7BE016F5F7F4F80E00E94F7
S1130210C700BE01675F7F4F81E00E94C7000E9454
S1130220A50080E00E94680080E00E94680060E011
S113023084E00E94AF0081E00E94680081E00E9497
S1130240680061E080E00E94AF0018E081E00E9455
S113025068002FEF8EE994E2215080409040E1F74E
S113026000C00000115091F70E947700D8CFF89495
S1050270FFCFBA
S11302720E0E0E041F040A111F1F1F1F1F1F1F1F14
S9030000FC
